:100000000C9433050C945B050C945B050C945B0518
:100010000C945B050C945B050C945B050C945B05E0
:100020000C945B050C945B050C941D090C94AC07B7
:100030000C945B050C945B050C945B050C945B05C0
:100040000C945B050C94EC140C945B050C945B0510
:100050000C945B050C945B050C945B050C94C8092F
:100060000C945B050C945B050C945B050C945B0590
:100070000C945B050C945B050C945B050C945B0580
:100080000C94A7140C945B050C945B050C945B0515
:100090000C945B050C945B050C945B050C945B0560
:1000A0000C945B050C945B050C945B055F17621761
:1000B000511755175B1783178317831766176A172E
:1000C0006E177417781783177E1712010002EF025C
:1000D00001404123368000010102030112010002A8
:1000E00000000040412336800001010203014172FB
:1000F0006475696E6F204C4C430055534220494F44
:1001000020426F6172640004030904080B000202BC
:100110000201000904000001020200000524001091
:10012000010524010101042402060524060001073B
:1001300005810310004009040100020A00000007C5
:10014000050202400000070583024000001018006D
:10015000000000000000000000000000000000009F
:100160000000001FF83FFC5FFA6006700E700E7012
:100170000E700E700E700E6006400200000000103F
:10018000183FFC5FFA6FF6700E700E700E700E70F6
:100190000E700E60065FFA3FFC1FFA0006000E00AC
:1001A0000E000E000E000E000E0FF61FFA3FFC00B0
:1001B0000010183FFC5FFA6FF6700E700E700E7034
:1001C0000E700E700E60065FFA3FFC5FFA600670FC
:1001D0000E700E700E700E700E700E6FF65FFA3F9E
:1001E000FC000010183FFC1FFA0FF6000E000E0076
:1001F0000E000E000E000E000600020000000200BD
:1002000006000E000E000E000E000E000E0006008E
:10021000020000000010183FFC5FF86FF0700070E3
:1002200000700070007000700060005FF83FFC5FBD
:10023000FA6006700E700E700E700E700E700E6FFB
:10024000F65FFA3FFC000010183FFC5FF86FF0709B
:10025000007000700070007000700060005FF83F78
:10026000FC1FFA0006000E000E000E000E000E002D
:100270000E0FF61FFA3FFC0000101800004002604D
:1002800006700E700E700E700E700E700E60065FAF
:10029000FA3FFC1FFA0006000E000E000E000E00D2
:1002A0000E000E000600020000000010183FFC1FA8
:1002B000FA0FF6000E000E000E000E000E000E00EB
:1002C000061FFA3FFC1FFA0006000E000E000E008B
:1002D0000E000E000E0FF61FFA3FFC000010183F34
:1002E000FC1FFA0FF6000E000E000E000E000E00AE
:1002F0000E00061FFA3FFC5FF8600070007000708F
:10030000007000700070006FF05FF83FFC0000109C
:1003100018000000020006000E000E000E000E0085
:100320000E000E00060002000000020006000E0093
:100330000E000E000E000E000E000600020000006F
:100340000010183FFC5FFA6FF6700E700E700E70A2
:100350000E700E700E6006400200004002600670D3
:100360000E700E700E700E700E700E6FF65FFA3F0C
:10037000FC000050101F861C3BF801E186FEFC309B
:100380000F1C3B00033986C0C6700F1E7B00061988
:10039000CEC0C7600F1E7B00061DCCC0C66F9F9FDE
:1003A000FBF8060CCCFECE61999BFB00060CDCC072
:1003B000F8619F99BB00060C78C0CC61B9D83B00AE
:1003C000061C78C0CE31B0D83B00031878C0C61FD9
:1003D000B0D83BF801F030FEC7000000000000007C
:1003E000000000000000000000000000000000000D
:1003F00000000000000000000000000000000000FD
:1004000000000000000000000000000000000000EC
:10041000000000000010183FFC1FF80FF000000063
:1004200000000000000000000000001FF83FFC1F5B
:10043000F800000000000000000000000000000FB5
:10044000F01FF83FFC000010180000000000000042
:10045000000000000000000000000000001FF83F46
:10046000FC1FF80000000000000000000000000079
:10047000000FF01FF83FFC00001018000000000003
:10048000000000000000000000000000000000006C
:10049000000000000000000000000000000000005C
:1004A0000000000FF01FF83FFC00001018000000D3
:1004B000000000000000000000000000000000003C
:1004C000001FF83FFC1FF8000000000000000000C3
:1004D00000000000000000000000000000D5F08DCA
:1004E00014A1C881CFD9F1AF200000000000003E68
:1004F0005B4F5B3E3E6B4F6B3E1C3E7C3E1C183C94
:100500007E3C181C577D571C1C5E7F5E1C00183CEF
:100510001800FFE7C3E7FF0018241800FFE7DBE738
:10052000FF30483A060E2629792926407F0505071F
:10053000407F05253F5A3CE73C5A7F3E1C1C08087B
:100540001C1C3E7F14227F22145F5F005F5F060940
:100550007F017F006689956A606060606094A2FF99
:10056000A29408047E040810207E201008082A1C8B
:1005700008081C2A08081E101010100C1E0C1E0C57
:1005800030383E3830060E3E0E06000000000000F7
:10059000005F00000007000700147F147F14242A66
:1005A0007F2A122313086462364956205000080738
:1005B0000300001C2241000041221C002A1C7F1C59
:1005C0002A08083E0808008070300008080808085B
:1005D000000060600020100804023E5149453E00C2
:1005E000427F400072494949462141494D33181420
:1005F000127F1027454545393C4A4949314121116F
:1006000009073649494936464949291E0000140060
:100610000000403400000008142241141414141483
:10062000004122140802015909063E415D594E7CE1
:100630001211127C7F494949363E414141227F4196
:1006400041413E7F494949417F090909013E4141F4
:1006500051737F0808087F00417F41002040413FDF
:10066000017F081422417F404040407F021C027FEE
:100670007F0408107F3E4141413E7F090909063E43
:100680004151215E7F091929462649494932030112
:100690007F01033F4040403F1F2040201F3F403824
:1006A000403F631408146303047804036159494DFF
:1006B00043007F4141410204081020004141417F35
:1006C00004020102044040404040000307080020AB
:1006D000545478407F2844443838444444283844AB
:1006E00044287F385454541800087E090218A4A4E2
:1006F0009C787F0804047800447D40002040403D01
:10070000007F1028440000417F40007C047804787A
:100710007C080404783844444438FC18242418180D
:10072000242418FC7C080404084854545424040469
:100730003F44243C4040207C1C2040201C3C403056
:10074000403C44281028444C9090907C4464544C85
:1007500044000836410000007700000041360800E0
:1007600002010204023C2623263C1EA1A161123A8A
:100770004040207A385454555921555579412154D7
:10078000547841215554784020545579400C1E52DC
:100790007212395555555939545454593955545480
:1007A000580000457C410002457D420001457C40E7
:1007B000F0292429F0F0282528F07C545545002004
:1007C00054547C547C0A097F4932494949323248A1
:1007D000484832324A4848303A4141217A3A424008
:1007E0002078009DA0A07D39444444393D404040DC
:1007F0003D3C24FF2424487E4943662B2FFC2F2BAD
:10080000FF0929F620C0887E09032054547941004D
:1008100000447D413048484A32384040227A007ACC
:100820000A0A727D0D19317D2629292F28262929AA
:10083000292630484D4020380808080808080808CC
:10084000382F10C8ACBA2F102834FA00007B0000F3
:1008500008142A142222142A14089500220095AAAA
:10086000005500AAAA55AA55AA000000FF001010C2
:1008700010FF00141414FF001010FF00FF1010F000
:1008800010F0141414FC001414F700FF0000FF0013
:10089000FF1414F404FC141417101F10101F101F61
:1008A0001414141F00101010F0000000001F10108E
:1008B00010101F10101010F010000000FF1010108A
:1008C000101010101010FF10000000FF140000FFA7
:1008D00000FF00001F10170000FC04F41414171090
:1008E000171414F404F40000FF00F7141414141483
:1008F0001414F700F7141414171410101F101F14F9
:100900001414F4141010F010F000001F101F000059
:10091000001F14000000FC140000F010F01010FF85
:1009200010FF141414FF141010101F00000000F02A
:1009300010FFFFFFFFFFF0F0F0F0F0FFFFFF0000FF
:10094000000000FFFF0F0F0F0F0F38444438447CA6
:100950002A2A3E147E02020606027E027E026355A9
:100960004941633844443C04407E201E2006027EF8
:10097000020299A5E7A5991C2A492A1C4C7201720A
:100980004C304A4D4D303048784830BC625A463D74
:100990003E494949007E0101017E2A2A2A2A2A4429
:1009A000445F444440514A444040444A514000005E
:1009B000FF0103E080FF000008086B6B0836123669
:1009C0002436060F090F060000181800000010104A
:1009D000003040FF0101001F01011E00191D171208
:1009E000003C3C3C3C00000000000000000200090C
:1009F0000F0000030401000C0000000000000000D4
:100A00000000000000000000000408020110408007
:100A100040102040804080080204018040201002E5
:100A20000110801020404020040404040403040545
:100A3000020202020403020202020606060606067B
:100A40000404020202040400000000250028002B18
:100A5000002E00310000000000240027002A002D95
:100A600000300000C50B11241FBECFEFDAE0DEBF5F
:100A7000CDBF11E0A0E0B1E0E8E6F4E302C00590EC
:100A80000D92A039B107D9F726E0A0E9B1E001C085
:100A90001D92A836B207E1F715E0C3E3D5E004C024
:100AA0002197FE010E94FC19C233D107C9F70E94A9
:100AB0005E050C94321A0C94000008950E947F0A7F
:100AC0000E945D0580E991E00E949E090E94BB0999
:100AD000C0E0D0E00E94BF092097E1F30E9400002F
:100AE000F9CF615030F02091F100FC012083019694
:100AF000F8CF289884E68093990108954091940155
:100B00005091950120919201309193014217530722
:100B1000B4F49091E8009570E1F39091E80092FDB3
:100B200019C08093F10080919401909195010196F4
:100B30008F739927892B19F48EEF8093E8008091A9
:100B40009401909195010196909395018093940161
:100B500081E0089580E00895CF92DF92EF92FF92B6
:100B60000F931F93CF93DF931F92CDB7DEB7182F4C
:100B7000062FE42E862F880F8E5F99830E947E05B4
:100B800083E00E947E05F12EC12E9981D92E8C2DF5
:100B90008F19801798F4F601E7FE02C0849101C016
:100BA00080810E947E05182F80E00E947E058123AF
:100BB000FFEFCF1ADF0A8111EACF01C081E00F9069
:100BC000DF91CF911F910F91FF90EF90DF90CF9029
:100BD00008958091D70081608093D70080EA809348
:100BE000D80089B5806189BD89B5826089BD09B4A5
:100BF00000FEFDCF61E070E080E090E00E94430ADB
:100C00008091D8008F7C80618093D8008091E00033
:100C1000807F8093E0000895CF93DF931F92CDB73C
:100C2000DEB71982CE0101960E94320B0E945F0C42
:100C3000BE016F5F7F4F0E94DA0B89810F90DF91B9
:100C4000CF9108952FB7FC012083F89467706093CB
:100C5000E9000895CF93DF931F92CDB7DEB7682FD9
:100C6000CE0101960E9422068091F20099819FBFD9
:100C70000F90DF91CF910895EF92FF920F931F9302
:100C8000CF93DF931F92CDB7DEB790919801992350
:100C900011F057FF03C08FEF9FEF2AC08A017B013D
:100CA000682FCE0101960E9422068091F20090E00A
:100CB000A801801791070CF4AC01842FF70194E68A
:100CC000815038F02898909399012091F100219358
:100CD000F7CF4115510521F08091F200882321F0D2
:100CE00089818FBFCA0104C08BE68093E800F8CFEA
:100CF0000F90DF91CF911F910F91FF90EF9008958A
:100D0000CF93DF931F92CDB7DEB741E050E0BE0135
:100D10006F5F7F4F0E943C06019719F4898190E034
:100D200002C08FEF9FEF0F90DF91CF910895CF9387
:100D3000DF931F92CDB7DEB7682FCE0101960E94D8
:100D400022069091E800892F807295FF04C090914F
:100D5000F2008FE3891B99819FBF0F90DF91CF91A4
:100D600008956F927F928F929F92AF92BF92CF928F
:100D7000DF92EF92FF920F931F93CF93DF931F9217
:100D8000CDB7DEB7A82E6B01B42E052F8091980148
:100D9000811103C08FEF9FEF6AC08091960180FFA1
:100DA00005C08091E00082608093E000EB2CF02E83
:100DB0008AEF982E8A2D8072782E9AE3892E8A2DBA
:100DC0008074682EE114F10409F447C08A2D0E9452
:100DD0009706182F81110AC09A949920D9F261E0E0
:100DE00070E080E090E00E94430AECCF90E0E816CB
:100DF000F9060CF41E2D6A2DCE0101960E942206E2
:100E00008091E80085FF26C0812F90E0E81AF90A5A
:100E1000772029F01150A8F01092F100FBCFF601D5
:100E2000A7FE07C0115058F024912093F10031968D
:100E3000F9CF115020F021912093F100FACFC80E84
:100E4000D91E8091E80085FF0FC0E114F10411F470
:100E500061100AC089818FBFB5CF5D9884E6809309
:100E60009A018B2D902F03C08092E800F3CF0F9052
:100E7000DF91CF911F910F91FF90EF90DF90CF9076
:100E8000BF90AF909F908F907F906F900895109239
:100E9000E900109295011092940190939301809330
:100EA00092010895DF92EF92FF920F931F93CF93D9
:100EB000DF93D82E8A017B01E40EF51EEB01CE15DF
:100EC000DF0571F0D7FE03C0FE01849101C0888167
:100ED0000E947E0521968111F2CF8FEF9FEF01C016
:100EE000C801DF91CF911F910F91FF90EF90DF909C
:100EF0000895BF92CF92DF92EF92FF920F931F93CC
:100F0000CF93DF936C018B01EB019BEFB92E209700
:100F1000C1F07E01C134D1051CF080E4E82EF12C33
:100F20008091E80082FFFCCFC8018C1B9D0B6E2DC9
:100F30008C0D9D1D0E947105B092E800CE19DF094D
:100F4000E6CFC801DF91CF911F910F91FF90EF90F5
:100F5000DF90CF90BF9008951F920F920FB60F921F
:100F60001124CF92DF92EF92FF920F931F932F9352
:100F70003F934F935F936F937F938F939F93AF9321
:100F8000BF93EF93FF93CF93DF93CDB7DEB76C970B
:100F9000DEBFCDBF1092E9008091E80083FF24C13D
:100FA00068E0CE0145960E94710582EF8093E800CB
:100FB0008D8987FF05C09091E80090FFFCCF03C0AA
:100FC0009EEF9093E800982F907609F0F1C09E89EB
:100FD0002F89188D91110CC0803829F480919701C8
:100FE0008093F10002C01092F1001092F100F5C060
:100FF000422F50E0512B913051F48111EEC041301D
:10100000510509F0EAC0809197018D7F0BC09330A4
:1010100061F48111E2C04130510509F0DEC08091D8
:101020009701826080939701D8C0953041F48091F8
:10103000E80080FFFCCF20682093E300CEC096300C
:1010400009F08CC0EB8CFC8C123069F580E090E0EC
:101050000E9447070E940C0699E09E012F5F3F4FB8
:101060006901F901292F11922A95E9F799831A83C9
:1010700091E09E8390EA98879AEF99872091940156
:1010800030919501275F3F4F3C832B838D83C701B0
:101090000E94470749E050E0B60180E00E945207F5
:1010A0000E940C069AC0C7010E9447070E945F0C6D
:1010B000BE016B5E7F4F0E94030C009719F00CF08D
:1010C0008CC08FC0113071F48B8D9C8D089719F4F2
:1010D00081E0809391018091910181112FC06CED8D
:1010E00070E031C0133009F07CC08F89882349F14A
:1010F000823029F440E86CE08AEF90E006C081304D
:1011000039F440E86BE08EEE90E00E94AC0563C0DD
:10111000833009F066C00E945F0C8E010F5F1F4F85
:10112000B8010E94220CF80101900020E9F73197E4
:10113000BF01601B710B40E0C801E7CF6AEC70E0B3
:1011400002C067E071E06115710509F44AC0FB0156
:10115000449150E080E80E9452073FC0973009F464
:1011600040C0983021F481E08093F10036C099307E
:10117000A1F58370B1F5E1E0F1E081E021E036E333
:101180009081992361F08093E9002093EB00919185
:101190009093EC003093ED008F5F873089F78EE7F6
:1011A0008093EA001092EA008F898093980115C01D
:1011B0008B8D9C8D0E944707898D811105C0CE01C2
:1011C00045960E943D0B07C00E945F0CBE016B5EFE
:1011D0007F4F0E94410C882321F08EEF8093E8001E
:1011E00003C081E28093EB006C960FB6F894DEBFEB
:1011F0000FBECDBFDF91CF91FF91EF91BF91AF9126
:101200009F918F917F916F915F914F913F912F911E
:101210001F910F91FF90EF90DF90CF900F900FBE36
:101220000F901F9018958093E9008091F200882319
:1012300019F08AE38093E80008951F920F920FB689
:101240000F9211242F933F934F935F936F937F934C
:101250008F939F93AF93BF93CF93EF93FF93C091DF
:10126000E1008091E100837F8093E100C3FF0FC024
:101270001092E90081E08093EB001092EC0082E391
:101280008093ED001092980188E08093F000C2FFF7
:1012900019C083E00E94130980919A01882339F0D4
:1012A00080919A01815080939A01882389F18091DD
:1012B0009901882339F08091990181508093990197
:1012C000882341F1C4FF10C08091E2008E7E8160CE
:1012D0008093E2008091E1008F7E8093E100809115
:1012E00096018E7E806111C0C0FF16C08091E20021
:1012F0008E7E80618093E2008091E1008E7E8093FB
:10130000E100809196018E7E81608093960104C0F9
:101310005D9ACDCF289AD6CFFF91EF91CF91BF9113
:10132000AF919F918F917F916F915F914F913F917D
:101330002F910F900FBE0F901F901895109298014B
:1013400010929701109296010E94E9058091E100A8
:101350008E7E8093E1008DE08093E200559A209A82
:10136000EEEFFFE7859194918B3F9C4D19F481E05E
:101370008093F40108950E94730C0C94B60C0E94A3
:10138000A10C882321F00E94930D0C94B20C0895B7
:101390001F920F920FB60F9211242F933F938F93AA
:1013A0009F93AF93BF9380919C0190919D01A091D9
:1013B0009E01B0919F0130919B0123E0230F2D37B7
:1013C00020F40196A11DB11D05C026E8230F029649
:1013D000A11DB11D20939B0180939C0190939D01C1
:1013E000A0939E01B0939F018091A0019091A101D3
:1013F000A091A201B091A3010196A11DB11D8093FE
:10140000A0019093A101A093A201B093A301BF9169
:10141000AF919F918F913F912F910F900FBE0F90A1
:101420001F9018952FB7F89460919C0170919D01C1
:1014300080919E0190919F012FBF08953FB7F8942E
:101440008091A0019091A101A091A201B091A3016E
:1014500026B5A89B05C02F3F19F00196A11DB11D0F
:101460003FBFBA2FA92F982F8827820F911DA11D4A
:10147000B11DBC01CD0142E0660F771F881F991F87
:101480004A95D1F708958F929F92AF92BF92CF92D3
:10149000DF92EF92FF926B017C010E941E0A4B01CA
:1014A0005C01C114D104E104F10401F10E94B90E00
:1014B0000E941E0ADC01CB0188199909AA09BB09FF
:1014C000883E9340A105B10560F321E0C21AD1081E
:1014D000E108F10888EE880E83E0981EA11CB11C7B
:1014E000C114D104E104F10419F7DBCFFF90EF90B0
:1014F000DF90CF90BF90AF909F908F900895789499
:1015000084B5826084BD84B5816084BD85B5826008
:1015100085BD85B5816085BDEEE6F0E080818160A6
:101520008083E1E8F0E010828081826080838081A6
:1015300081608083E0E8F0E0808181608083E1E980
:10154000F0E0808182608083808181608083E0E937
:10155000F0E0808181608083E1ECF0E08081846054
:101560008083808182608083808181608083E3ECDE
:10157000F0E0808181608083E0ECF0E08081826037
:101580008083E2ECF0E0808181608083EAE7F0E034
:10159000808184608083808182608083808181609B
:1015A00080838081806880830895CF93DF931F922A
:1015B000CDB7DEB76983DC01ED91FC910280F38148
:1015C000E02D41E050E0BE016F5F7F4F09950F9025
:1015D000DF91CF910895CF93DF93EC018C859D85AA
:1015E00097FF05C082E00E9480069D878C878C85CE
:1015F0009D85DF91CF91089583E00C941309FC0140
:101600008485958597FD06C082E00E942A0690E0B9
:101610000196089582E00E942A0690E00895FC0158
:101620008485958597FD05C02FEF3FEF358724878B
:10163000089582E00C948006CF93DF93EC018091B3
:101640001201882331F083E00E94B10618161906B2
:1016500034F081E090E09B838A8380E090E0DF912A
:10166000CF910895FC0190819E5F908342E450E009
:101670006BE071E080E80C945207FC01818190815D
:10168000913A59F4813209F048C047E050E06BE0EC
:1016900071E080E00E94520776C09132F1F583320A
:1016A00091F49381892F90E0982F88272281822BB3
:1016B000A0E0B0E08093070190930801A093090196
:1016C000B0930A0160C0803239F467E070E08BE0CB
:1016D00091E00E94790706C0823209F054C08281ED
:1016E000809312018091F401882319F0EEEFFAE063
:1016F00002C0E0E0F8E080910B0190910C01A09114
:101700000D01B0910E01803B9440A105B10539F463
:101710008091120180FF1FC002C080E008950FB6C3
:10172000F894A89580916000886180936000109281
:1017300060000FBEA895EE3F8AE0F80739F080916F
:10174000FE0A9091FF0A918380831DC01092FF0AC8
:101750001092FE0A18C0EE3F2AE0F20731F08081B5
:1017600091819093FF0A8093FE0A87E797E7918320
:1017700080839BE088E10FB6F894A8958093600081
:101780000FBE9093600081E00895E4EAF1E01382D7
:10179000128288EE93E0A0E0B0E084839583A68374
:1017A000B78383E391E0918380838FEF9FEF9587E9
:1017B00084870895EF92FF920F931F93CF93DF9347
:1017C0007B01FC01C281D38100E010E0209781F011
:1017D000E881F9810280F381E02DB701CE010995FE
:1017E00097FD08C0080F191F0884D985C02DEECFBA
:1017F000C80102C08FEF9FEFDF91CF911F910F9132
:10180000FF90EF9008950F931F93CF93DF938B0179
:10181000FC01C281D381209771F0E881F9810480B5
:10182000F581E02DB801CE010995009731F40884C7
:10183000D985C02DF0CF80E090E0DF91CF911F914E
:101840000F9108950F931F93CF93DF938B01FC01AA
:10185000C281D381209771F0E881F9810680F781F8
:10186000E02DB801CE010995080F111D0884D98516
:10187000C02DF0CFF8011082DF91CF911F910F9111
:1018800008950F931F93CF93DF938B01FC01C281C7
:10189000D381209771F0E881F9810190F081E02DEA
:1018A000B801CE010995811105C00884D985C02DE4
:1018B000F0CF80E0DF91CF911F910F91089580913B
:1018C000F90181110DC082E08093F50184E08093DD
:1018D000F6011092F8011092F70181E08093F9016E
:1018E00085EF91E00895E4E6F0E0808180648083F4
:1018F0008081816080838081806880838081826034
:101900008083E5E6F0E08081816080830E94F311AE
:101910000E9417110E942B140E9487100E948011B0
:101920000E94EB110E943D130C94861083B7817FB7
:1019300083BF83B7816083BF889583B78E7F83BF62
:101940000895CF93DF931F92CDB7DEB70E94251184
:10195000882321F089830E949F1189810F90DF9154
:10196000CF9108950E9477120C94AA1242E050E0A1
:1019700060E081E092E00C94BA0E0E94560E0E9444
:10198000430E0E9431150E943616E1E0F2E081E03C
:1019900080831182089580910202882329F081506A
:1019A000809302020C9446150E943217882341F05E
:1019B0000E943C17882311F085E017C083E015C012
:1019C0000E9470150E948A150E9446150E94671693
:1019D0000E947D158111F0CF0E942F17882349F0B6
:1019E0000E9483158111E8CF84E080930102109258
:1019F00002020895FF920F931F93CF93DF9300D0BD
:101A0000CDB7DEB727E00AE010E0B8010E94B219B6
:101A1000F62E682F822F29837A830E94570E8F2DEE
:101A20007A81972F29812150213079F70F900F90DB
:101A3000DF91CF911F910F91FF9008950E94201781
:101A40000C94FA0C0E941E0D809102028F5F80930D
:101A500002028C3348F00E945C160E943F1582E01F
:101A6000809301021092020208950E94260E0C94A7
:101A7000FA0C61E083E00E94570E66E084E00E9469
:101A8000570E85E00E94AC0E63E086E00E94570E80
:101A900060E087E00C94570E809102028F5F809384
:101AA00002028C3310F40C94350D883710F40C942A
:101AB000390D0E94390D82E08093010210920202DA
:101AC00008950E941D1761E0680F80E00E94570E84
:101AD00081E00C94AC0E0E94610D0E941E0D80915D
:101AE00002028F5F809302028C3348F00E943D1601
:101AF0000E94311582E08093010210920202089543
:101B00000E94610D0E941E0D0E94B30E0E94E811FA
:101B100083FF08C00E9420170E94E00D109201026E
:101B200010920202089580910102823081F030F417
:101B3000882359F0813089F40C944C0D843059F08D
:101B400040F0853051F40C94800D0C94BD0C0C9435
:101B5000CB0C0C946B0D0C94220D1F928FE18F9384
:101B60008FE391E09F938F9388E491E09F938F930D
:101B700081E591E09F938F930E945E108DB79EB791
:101B800008960FB6F8949EBF0FBE8DBF0895809340
:101B900002020895CF93DF9384E090E00E949510B5
:101BA0000E94AA10C3E0D2E0998388830E94B710F4
:101BB0006A837B838C839D83DF91CF910C94451343
:101BC000CF93DF93EC0180E090E00E94951089E4D0
:101BD0000E94DC108EE40E94DC1086E50E94DC107E
:101BE00081E40E94DC1080910302909104028C1722
:101BF0009D0720F4D0930402C09303028091030256
:101C0000909104020E94EC100E944B136C0F7D1FF8
:101C1000811D911DDF91CF910C94FB1080E090E02D
:101C20000E94951089E40E94DC108EE40E94DC1072
:101C300086E50E94DC1081E40E94DC1080E090E0E8
:101C40000E94EC100E944B130C94FB108091030235
:101C500090910402089580E090E00E9495100E9407
:101C60009B10893469F40E949B108E3449F40E94C1
:101C70009B10863529F40E949B1091E0813409F075
:101C800090E0892F089546E050E060E083E092E024
:101C90000E94BA0E0E942B0E882331F00E94CA0DBA
:101CA00080E090E00C94E00D0C940E0E0895CF931C
:101CB000DF9300D0CDB7DEB76B30B8F01F9292E261
:101CC0009F932BE531E03F932F9323E631E03F9341
:101CD0002F936A8389830E945E100F900F900F905C
:101CE0000F900F900F9089816A81E62FF0E0EE0F40
:101CF000FF1FE75EFE4F4081518164E18295807F46
:101D00000F900F90DF91CF910C94B512CF93DF938A
:101D1000C82FD0E0C430D1059CF01F9289E28F9388
:101D20008BE591E09F938F9383E791E09F938F934F
:101D30000E945E100F900F900F900F900F900F90D9
:101D4000CC0FDD1FCF5EDE4F4881598164E180E119
:101D5000DF91CF910C94B5124BEA54E064E1829587
:101D6000807F0C94B51243E753E064E080E00C946C
:101D7000B51208954115510549F01416150634F4AD
:101D8000FC016083415051090196F7CF08950F93EC
:101D90001F93CF938B01252F0E94C619FB01C82FDB
:101DA0001E161F063CF4522FB801CF010E94C70E29
:101DB000482F292FC05DE42FF22FC193CF01CF917F
:101DC0001F910F910895AF92BF92CF92DF92EF9241
:101DD000FF920F931F93CF93DF935B01FA01102FB4
:101DE000FE2C0E94C6196B01EC01161617061CF09A
:101DF0002230310554F021503109E12C012FAF017F
:101E0000B501C6010E94E30EFC01CF0101962097A7
:101E100021F4CD2811F4FF2019F0C05DC08301C06A
:101E20001083DF91CF911F910F91FF90EF90DF9082
:101E3000CF90BF90AF9008958F929F92AF92BF9234
:101E4000CF92EF920F931F93CF93DF934B015C01DF
:101E5000D02F1E2DCC2D80E188169104A104B10451
:101E600018F4223031058CF021503109CC2EE12CB0
:101E70000D2FC501B401E4E0969587957795679598
:101E8000EA95D1F70E941C0FAC0194012F70332703
:101E9000CA0101962115310531F489288A288B2839
:101EA00011F4112351F02A30310518F0CA502C0FCB
:101EB00001C0205DFA01208302C0FA01D083DF91C6
:101EC000CF911F910F91EF90CF90BF90AF909F90C7
:101ED0008F900895CF92DF92EF92FF92CF936B0194
:101EE0007C01C22F80E1C816D104E104F10460F046
:101EF000C701B60134E096958795779567953A9531
:101F0000D1F70E946A0FAC0196012F703327CA01E6
:101F100001962A30310518F0CA502C0F01C0205DFF
:101F2000FA012083CF91FF90EF90DF90CF9008953A
:101F3000DC01FB019D91992311F09193FBCFCF011F
:101F400008954F925F926F927F928F929F92AF927D
:101F5000BF92CF92EF92FF920F931F93CF93DF9395
:101F6000DB01FA0110E2812C912C3DE2F32E2C9141
:101F7000222309F491C0253241F05D013FEFA31AFD
:101F8000B30ADC012C93EF0185C011963C911197A7
:101F90005D01303321F022E0A20EB11C06C033E017
:101FA000A30EB11C12963C9110E320ED230F2A30B2
:101FB00078F4232F330F330B490140E3841A91083F
:101FC000D5013C91A5014F5F5F4F5A0121E001C04F
:101FD00020E03C36B9F134F4333609F456C03436D7
:101FE00071F05AC0333709F448C0383709F054C08B
:101FF000EF01229640805180612C712C29C0EF01A5
:1020000022960190F081E02DF7FF06C0F195E19551
:10201000F109DC01FC920196222369F0EE24E3949D
:10202000012F9401AC016AE070E0CF010E94E30E41
:10203000FE01D5019CCFAC016AE070E0CF010E94A7
:10204000C70EF6CFEF0124964080518062807380E6
:10205000222361F021E6C22EEE24E394012F9401A5
:10206000AC01C301B2010E941C0FE2CF21E6AC011A
:10207000C301B2010E946A0FDBCFEF012296BC01BF
:10208000808191810E94980FD3CFEF012296208109
:10209000FC0120830196CCCFDC011C92DF91CF9113
:1020A0001F910F91FF90EF90CF90BF90AF909F90B6
:1020B0008F907F906F905F904F900895CF93DF93B4
:1020C000CDB7DEB7A8970FB6F894DEBF0FBECDBF71
:1020D000AE01435D5F4FFA0161917191AF01CE0195
:1020E00001960E94A10F8E010F5F1F4FF02EF094FA
:1020F000F80141918F01442331F060E08F2D800F72
:102100000E948512F5CF0E947712FFCF089542E01A
:1021100050E060E089E092E00E94BA0E80E190E039
:1021200090930A02809309020895409690930A02C0
:10213000809309020895F999FECF80910902909148
:102140000A029C012F5F3F4F30930A02209309023D
:102150000C941C1ACF930E949B10C82F0E949B10B6
:102160002C2F30E0A901582BCA01CF910895CF92AE
:10217000DF92EF92FF92CF93DF930E949B10C82FC4
:102180000E949B10D82F0E949B10C82ED12CE12CAE
:10219000F12C7601DD24CC24DD2ACC2A0E949B1070
:1021A000A7019601582BCA01B901DF91CF91FF9089
:1021B000EF90DF90CF900895682FF999FECF80912E
:1021C000090290910A029C012F5F3F4F30930A024F
:1021D000209309020C94241ACF93DF931F92CDB75A
:1021E000DEB799830E94DC109981892F0F90DF91CF
:1021F000CF910C94DC101F93CF93DF9300D0CDB719
:10220000DEB7182F862F79839A830E94DC1079819C
:10221000872F0E94DC10812F0E94DC109A81892F69
:102220000F900F90DF91CF911F910C94DC1041E142
:1022300050E060E08BE092E00E94BA0EEBE0F2E04A
:102240008EE1808381E284870895CF92DF92EF92BE
:10225000FF920F931F930E94120A209118022223CB
:1022600091F020911202C62EC21AC092160220913D
:102270000C0230910D022F5F3F4F30930D022093DF
:102280000C021092180200910E0210910F02209180
:10229000100230911102601771078207930730F422
:1022A000061B023028F10E94960C22C020911702D2
:1022B0006B017C01C20ED11CE11CF11CC0920E020C
:1022C000D0920F02E0921002F0921102609312027B
:1022D00070931302809314029093150281E080930F
:1022E000180280911B028F5F80931B0281E001C066
:1022F00080E01F910F91FF90EF90DF90CF900895B5
:1023000045E050E060E08CE192E00E94BA0E62E0AD
:1023100084E10E94841762E083E10E94841762E0F6
:1023200082E10E94841762E085E10E94841762E0E6
:1023300087E00E94841762E088E00C9484174FB114
:102340002CB193B130E0209530952074332783E091
:10235000359527958A95E1F7892F90E0809590959E
:10236000807199279595879595958795822B932BC5
:10237000242F2095207F822B40911C0220911D024A
:102380002827342F3095232320931D02382F309592
:10239000432340931E0280931C022C7F21F4209142
:1023A0002002211106C080931F0226E02093200204
:1023B00002C010921F028C7F41F08091200288237E
:1023C00031F08150809320020895109220020895E8
:1023D00080911D02089508958EBD00000DB407FE82
:1023E000FDCF8EB50895BF92CF92DF92EF92FF920C
:1023F0000F931F93CF93DF9340E054E060E081E2BE
:1024000092E00E94BA0E0E94F0178CB58C7F8CBDB2
:102410008DB581608DBD61E084E00E94841761E02C
:102420008CE00E94841761E086E00E94841761E0DE
:1024300086E00E94C01761E070E080E090E00E94BA
:10244000430A60E086E00E94C0176AE070E080E026
:1024500090E00E94430A61E086E00E94C017E4E336
:10246000FAE0E491F0E0EE0FFF1FE95BF54FC59154
:10247000D491ECE2FAE0E491F0E0EE0FFF1FE95BAB
:10248000F54FE590F490E5E1FAE01491EDE0FAE023
:1024900004918881812B8883D7019C91802F80951E
:1024A00089238C9388811095812388832DEDC22EFA
:1024B00024E0D22E3DE0B32EBC0CF60184910E94A4
:1024C000EC11FFEFCF1ADF0ABC10F7CFD701EC9168
:1024D000E02BEC93E8811E231883DF91CF911F91AD
:1024E0000F91FF90EF90DF90CF90BF900895CF9322
:1024F000DF93C1E2D2E089910E94EC1186E0C13203
:10250000D807C9F7DF91CF910895893110F5683068
:1025100000F590E8699FB001112495E04902A001FF
:10252000112420E030E095E0899F600D711D112499
:10253000F901E40FF51FE651FB4FE491D901A60F15
:10254000B71FAF5DBD4FEC932F5F3F4F2530310577
:1025500079F7089581E292E0FC0100241192119232
:10256000119211920394D1F708952F923F925F92A6
:102570006F927F928F929F92AF92BF92CF92DF9293
:10258000EF92FF920F931F93CF93DF93FA01A490E2
:10259000EA01229631966490EA2CE694E694E69459
:1025A000F12C062E000C770BB0E077247394082EE4
:1025B000000C990BB61509F44EC060347105C0F4D7
:1025C0009B0113E0359527951A95E1F73695322F43
:1025D000222737952795AB0147705527B72C01C0A7
:1025E000BB0C4A95EAF7FE01A0E0280F391F11C085
:1025F000CE0DDF1D2CC08601040F151F00381105FC
:10260000C8F096944F5F5F4F48305105A1F7A85F1F
:102610003196EF01AA15D8F4849040E050E0C0E86C
:102620009C2ECA2FD0E06E01C80ED91E1E01220EAC
:10263000331EE1CF192D182121F38A01020D131D3C
:102640000F5D1D4FE80158805B285882DACFBF5FCD
:102650006F5F7F4FAFCFDF91CF911F910F91FF90B1
:10266000EF90DF90CF90BF90AF909F908F907F9032
:102670006F905F903F902F9008954BE952E16CE787
:1026800076EF81E296E00C94F818AB01BC0181E290
:1026900096E00C94F8184F925F926F927F928F920F
:1026A0009F92AF92BF92CF92DF92EF92FF920F93E1
:1026B0001F93CF93E1E2F6E084859585A685B785E3
:1026C000048115812681378180849184A284B3841A
:1026D00075016401C026D126E226F326408151818E
:1026E000628173817F774C255D256E257F256A0188
:1026F0007B01CC0CDD1CEE1CFF1C4C255D256E25E2
:102700007F256C017D01F694E794D794C7948C25BE
:102710009D25AE25BF2584279527A627B7270083AB
:1027200011832283338384879587A687B7876C01BB
:102730007D01C1E0CC22DD24EE24FF244424552475
:1027400032014C185D086E087F08C088D188E28885
:10275000F388C420D520E620F7208C249D24AE24C5
:10276000BF2484829582A682B7826C017D01CAE073
:10277000CC0CDD1CEE1CFF1CCA95D1F74C255D2549
:102780006E257F25C488D588E688F788C420D520A3
:10279000E620F7204C255D256E257F254087518753
:1027A00062877387452F562F672F7727040F151FD2
:1027B000261F371F80279127A227B32701701127D3
:1027C0002227332730952095109501951F4F2F4FC5
:1027D0003F4F408D518D628D738D04231523262329
:1027E0003723BC01CD016027712782279327CF9122
:1027F0001F910F91FF90EF90DF90CF90BF90AF901F
:102800009F908F907F906F905F904F900895CF939F
:10281000DF9300D000D0CDB7DEB79B01AC01698358
:102820003A834B835C830E944B1329813A814B810D
:102830005C810E94DA1997FF07C09095809570958A
:1028400061957F4F8F4F9F4F0F900F900F900F907C
:10285000DF91CF910895CF93DF9340E150E060E0A6
:102860008DE396E00E94BA0E61E085E00E94841735
:10287000EDE2FAE0E491F0E0EE0FFF1FE95BF54FC7
:1028800085919491CDE3D6E09B878A87EEE0FAE0CC
:10289000E491EC8761E08DE00E948417E5E3FAE0C3
:1028A000E491F0E0EE0FFF1FE95BF54F8591949105
:1028B0009E878D87E6E1FAE0E491EF871092900021
:1028C000A1E9B0E01C9210928000E1E8F0E01082F3
:1028D0008C9188608C938C9181608C9380818860CE
:1028E0008083808181608083E5E6F0E08081877F5E
:1028F0008083E4E6F0E08081877F8083DF91CF9161
:10290000089581110DC0909171009D7F9093710089
:10291000E0914706F09148062081909149060CC04D
:1029200090916F009D7F90936F00E0914A06F09127
:102930004B06208190914C0690959223908395E0D0
:10294000899FF0011124E35CF94F108208951F92D2
:102950000F920FB60F9211242F933F934F935F93D3
:102960006F937F938F939F93AF93BF93EF93FF9357
:10297000E0914706F09148069081809149068927A9
:10298000808380913E0690913F06A0914006B091D1
:1029900041060197A109B10980933E0690933F0635
:1029A000A0934006B0934106892B8A2B8B2B19F4F8
:1029B00080E00E948114FF91EF91BF91AF919F91B0
:1029C0008F917F916F915F914F913F912F910F90D8
:1029D0000FBE0F901F9018951F920F920FB60F9277
:1029E00011242F933F934F935F936F937F938F9314
:1029F0009F93AF93BF93EF93FF93E0914A06F091BB
:102A00004B06908180914C068927808380914306F4
:102A100090914406A0914506B09146060197A10900
:102A2000B1098093430690934406A0934506B09362
:102A30004606892B8A2B8B2B19F481E00E94811486
:102A4000FF91EF91BF91AF919F918F917F916F9186
:102A50005F914F913F912F910F900FBE0F901F905C
:102A6000189543E050E060E08DE496E00E94BA0ED5
:102A7000EDE4F6E083E080838EE181830895EDE468
:102A8000F6E080818150808312820895CF930E9466
:102A9000E811C82F82FF18C090914E069150909374
:102AA0004E0680914F060E942517882351F0809191
:102AB0004F060E94A21680914F068A3011F487E1DA
:102AC00001C086E00E94C70DC5FF08C080914F0677
:102AD0008F5F6BE00E94A41990934F06CF910895E9
:102AE000CF93DF93CDE4D6E06A8180E00E94570E59
:102AF0008881DF91CF910C94860E81E090914E06F3
:102B0000911180E0089581E090914D0692300CF093
:102B100080E00895CF93C0E080915906C817C4F4AF
:102B20008C2F0C2E000C990BFC01EE0FFF1FE05BAD
:102B3000F94F2385222351F0880F991FFC01E45A95
:102B4000F94F608182E08C0F0E94570ECF5FE4CF77
:102B5000CF910895A09159060A2E000CBB0B119736
:102B600060E0262F062E000C330BA901440F551FE1
:102B7000C90106962A173B07C4F4F901EE0FFF1F9F
:102B8000EE5AF94F7385FA01E05BF94F7387220F14
:102B9000331FF901E25AF94F2081880F991FFC0178
:102BA000E05BF94F20836F5FDCCFFA01E05BF94F08
:102BB0001386880F991FFC01E05BF94F108208957E
:102BC00080915406882349F16AE070E080E090E04B
:102BD0000E94071480915106882319F01092510623
:102BE0006AE080915906082E000C990BFC01EE0F4B
:102BF000FF1FE25BF94F21E02387880F991FFC013B
:102C0000E65AF94F608380915406815080935406B0
:102C100080915A068F5F80935A060895FF920F9312
:102C20001F93CF93DF93C82FF62ED42F890147E14E
:102C300050E060E080E596E00E94BA0EC093520634
:102C4000F0925306D09354061093570600935606FD
:102C5000CC2311F085E001C086E080935906DF9116
:102C6000CF911F910F91FF900C94E01520E030E080
:102C700040E160E080E00C940E16809153068F5F77
:102C800089301CF4809353060CC010925306809137
:102C900052068F5F82301CF48093520602C010925D
:102CA0005206209156063091570640E16091530636
:102CB000809152060C940E16E0E5F6E026813781ED
:102CC00042858481480F638182810C940E16809125
:102CD00055068F5F80935506E09153060E2E000C2B
:102CE000FF0BEA57FE4F9081891774F0109255063A
:102CF00080915B06882321F081E08093500608953F
:102D00000E94AA150C94E0150895482F9091590639
:102D100080E08917B4F4282F082E000C330BF9013A
:102D2000EE0FFF1FE05BF94F5385552341F0220F53
:102D3000331FF901E45AF94F2081241711F08F5FF6
:102D4000E8CF0895CF93C82F0E948516282F482FCB
:102D5000880F550B4F5F5F4F80915206082E000C75
:102D6000990B01963AE0389FF001399FF00D11243C
:102D70004E9FB0014F9F700D5E9F700D112480918A
:102D8000560690915706860F971FCA3011F4845D3E
:102D90009E4F9093570680935606309158068C2F7D
:102DA000CC0F990B830F911D37FD9A956AE070E067
:102DB0000E94C61980935806892B19F481E08093EC
:102DC0005106322F1316F4F4832F032E000C990BA7
:102DD000FC01EE0FFF1FE25BF94F4385FC01EE0F94
:102DE000FF1FE05BF94F4387FC01EE0FFF1FE65A20
:102DF000F94F4081880F991FFC01E45AF94F408335
:102E00003150E0CF822F27FD80E0281B822F082E33
:102E1000000C990BFC01EE0FFF1FE05BF94F1386CE
:102E2000880F991FFC01E45AF94F108280915A06CD
:102E3000815080935A06CF9108958091530608954A
:102E4000809156069091570608950E94851691E04C
:102E500020915906821301C090E0892F0895809136
:102E60005006089580915406811104C081E090912C
:102E70005A06911180E008958091520618162CF49C
:102E800081E09091530698300CF480E0089590E032
:102E9000FC013197EF30F105B0F5EA5AFF4F0C9481
:102EA000FC19809180008F7703C0809180008F7D16
:102EB00080938000089580918000877FF9CF84B54A
:102EC0008F7702C084B58F7D84BD08958091900076
:102ED0008F7707C0809190008F7D03C08091900014
:102EE000877F8093900008958091C0008F7703C002
:102EF0008091C0008F7D8093C00008958091C200B2
:102F0000877F8093C2000895CF93DF9390E0FC0108
:102F1000E75FF54F2491FC01E85DF54F849188232C
:102F200061F190E0880F991FFC01EB5AF54FC591B4
:102F3000D491FC01E95BF54FA591B491611109C0F1
:102F40009FB7F8948881209582238883EC912E2363
:102F50000BC0623061F49FB7F8943881822F80955E
:102F600083238883EC912E2B2C939FBF06C08FB7B1
:102F7000F894E8812E2B28838FBFDF91CF9108959D
:102F80001F93CF93DF93282F30E0F901E651F64FDE
:102F90008491F901E75FF54FD491F901E85DF54FB0
:102FA000C491CC23C9F0162F81110E944717EC2F32
:102FB000F0E0EE0FFF1FE95BF54FA591B4918FB7DD
:102FC000F894111105C09C91ED2FE095E92302C002
:102FD000EC91ED2BEC938FBFDF91CF911F91089572
:102FE000CF93CFB7F89480916706811127C0E9E3AA
:102FF000FAE08491EAE1FAE09491E82FF0E0EE0F34
:10300000FF1FEB5AF54FA591B491EC91E92321F400
:1030100061E081E10E94C01761E081E10E948417B4
:103020008CB580618CBD8CB580648CBD61E08FE017
:103030000E94841761E080E10E94841780916706F6
:103040008F5F80936706CFBFCF9108958F929F9235
:10305000AF92BF92CF92DF92EF92FF920F931F93A6
:10306000CF93FC0184859585A685B785C480D580DE
:10307000E680F78000851185228533854801590156
:103080008C249D24AE24BF244081518162817381B0
:103090007F77482559256A257B254A015B01880CE5
:1030A000991CAA1CBB1C482559256A257B254C0167
:1030B0005D01B694A7949794879488259925AA25AD
:1030C000BB2584279527A627B727C082D182E28215
:1030D000F38284879587A687B7874C015D01C1E09D
:1030E0008C229924AA24BB24B094A0949094809418
:1030F000811C911CA11CB11CC088D188E288F38876
:10310000C820D920EA20FB200C251D252E253F258F
:1031100004831583268337831AE0880F991FAA1F1B
:10312000BB1F1A95D1F7482759276A277B27C488E0
:10313000D588E688F788950184010C211D212E2170
:103140003F21402751276227732740875187628795
:103150007387CF911F910F91FF90EF90DF90CF90E9
:10316000BF90AF909F908F900895FC0180819181D6
:10317000A281B381BF77892B8A2B8B2BC1F58481E8
:103180009581A681B781892B8A2B8B2B81F5808530
:103190009185A285B385892B8A2B8B2B41F584855C
:1031A0009585A685B785892B8A2B8B2B01F584E520
:1031B00090E0A0E0B0E080839183A283B38389E4B0
:1031C00090E0A0E0B0E084839583A683B7838EE48B
:1031D00090E0A0E0B0E080879187A287B38789E57F
:1031E00090E0A0E0B0E084879587A687B787089530
:1031F0008F929F92AF92BF92CF92DF92EF92FF9207
:103200000F931F93CF93DF93EC01488359836A8315
:103210007B8388899989AA89BB898C839D83AE83A6
:10322000BF838C899D89AE89BF8988879987AA8742
:10323000BB87888D998DAA8DBB8D8C879D87AE8726
:10324000BF87C12CD12C7601C3948601037011274E
:10325000000F111F000F111F0C0F1D1FF6013197DA
:10326000E370FF27EE0FFF1FEE0FFF1FEC0FFD1F98
:1032700080819181A281B381AC01BD012EE176955F
:103280006795579547952A95D1F79A01AB0128275D
:1032900039274A275B2765E679E887E09CE60E94A4
:1032A0008819DC01CB018C0D9D1DAE1DBF1DF801E1
:1032B00080809180A280B38088259925AA25BB258E
:1032C00080839183A283B383FFEFCF1ADF0AEF0AD3
:1032D000FF0A88E0C816D104E104F10409F0B5CF73
:1032E000CE010E94B51808E010E0CE010E94261819
:1032F00001501109D1F7DF91CF911F910F91FF90EC
:10330000EF90DF90CF90BF90AF909F908F900895F7
:10331000DB018F939F930E94021ABF91AF91A29FEE
:10332000800D911DA39F900DB29F900D11240895C3
:10333000991B79E004C0991F961708F0961B881F07
:103340007A95C9F78095089587FB082E062687FD94
:10335000819567FD61950E9498190EF4919507FC7F
:1033600081950895AA1BBB1B51E107C0AA1FBB1F73
:10337000A617B70710F0A61BB70B881F991F5A9501
:10338000A9F780959095BC01CD01089597FB072E74
:1033900016F4009407D077FD09D00E94B21907FCFB
:1033A00005D03EF4909581959F4F08957095619555
:1033B0007F4F0895A1E21A2EAA1BBB1BFD010DC071
:1033C000AA1FBB1FEE1FFF1FA217B307E407F507D5
:1033D00020F0A21BB30BE40BF50B661F771F881FB1
:1033E000991F1A9469F760957095809590959B0147
:1033F000AC01BD01CF010895EE0FFF1F0590F491C0
:10340000E02D09940E940D1AA59F900DB49F900D78
:10341000A49F800D911D11240895A29FB001B39F18
:10342000C001A39F700D811D1124911DB29F700DCD
:10343000811D1124911D0895F999FECF92BD81BD82
:10344000F89A992780B50895262FF999FECF1FBACB
:1034500092BD81BD20BD0FB6F894FA9AF99A0FBEBD
:0834600001960895F894FFCFD6
:1034680000C18081000000FFFFFFFF00E1000000B5
:1034780000000079044704150441030F03DD02AB83
:1034880002790247021502E301B1017F014D0100F3
:10349800000000D50A1C0BFF0A0F0BEB0AFC0A6799
:1034A800616D652E6370700047616D652E61637490
:1034B8000025732825642925780A007265732E6310
:1034C8007070002573282564296E756D203C2031A5
:1034D800310A002573282564296E756D202D203149
:1034E800203C20330A0024211E1B1815120F0C0043
:00000001FF
